{
  "address": "0xf954586747b7361f9deac0f943160a2d66ec8e5f",
  "abi": [
    {
      "inputs": [],
      "name": "AdapterNotAuthorized",
      "type": "error"
    },
    {
      "inputs": [],
      "name": "CapabilityNotAllowed",
      "type": "error"
    },
    {
      "inputs": [],
      "name": "NotAuthorizedAdapter",
      "type": "error"
    },
    {
      "inputs": [],
      "name": "NotConsumer",
      "type": "error"
    },
    {
      "inputs": [],
      "name": "NotOwner",
      "type": "error"
    },
    {
      "inputs": [],
      "name": "ProfileExists",
      "type": "error"
    },
    {
      "inputs": [],
      "name": "ProfileMissing",
      "type": "error"
    },
    {
      "inputs": [],
      "name": "WeightExceedsThreshold",
      "type": "error"
    },
    {
      "inputs": [
        {
          "internalType": "enum PulseOracle.LifecycleState",
          "name": "current",
          "type": "uint8"
        }
      ],
      "name": "WrongState",
      "type": "error"
    },
    {
      "inputs": [],
      "name": "ZeroAddress",
      "type": "error"
    },
    {
      "inputs": [],
      "name": "ZeroThreshold",
      "type": "error"
    },
    {
      "inputs": [],
      "name": "ZeroWeight",
      "type": "error"
    },
    {
      "anonymous": false,
      "inputs": [
        {
          "indexed": true,
          "internalType": "bytes32",
          "name": "profileId",
          "type": "bytes32"
        },
        {
          "indexed": true,
          "internalType": "address",
          "name": "adapter",
          "type": "address"
        },
        {
          "indexed": false,
          "internalType": "uint8",
          "name": "capabilities",
          "type": "uint8"
        },
        {
          "indexed": false,
          "internalType": "bytes32",
          "name": "typeLabel",
          "type": "bytes32"
        }
      ],
      "name": "AdapterAuthorized",
      "type": "event"
    },
    {
      "anonymous": false,
      "inputs": [
        {
          "indexed": true,
          "internalType": "bytes32",
          "name": "profileId",
          "type": "bytes32"
        },
        {
          "indexed": true,
          "internalType": "address",
          "name": "adapter",
          "type": "address"
        }
      ],
      "name": "AdapterRevoked",
      "type": "event"
    },
    {
      "anonymous": false,
      "inputs": [
        {
          "indexed": true,
          "internalType": "bytes32",
          "name": "profileId",
          "type": "bytes32"
        },
        {
          "indexed": false,
          "internalType": "uint32",
          "name": "threshold",
          "type": "uint32"
        }
      ],
      "name": "ConfigUpdated",
      "type": "event"
    },
    {
      "anonymous": false,
      "inputs": [
        {
          "indexed": true,
          "internalType": "bytes32",
          "name": "profileId",
          "type": "bytes32"
        },
        {
          "indexed": false,
          "internalType": "uint32",
          "name": "epoch",
          "type": "uint32"
        }
      ],
      "name": "Finalized",
      "type": "event"
    },
    {
      "anonymous": false,
      "inputs": [
        {
          "indexed": true,
          "internalType": "bytes32",
          "name": "profileId",
          "type": "bytes32"
        },
        {
          "indexed": false,
          "internalType": "address",
          "name": "target",
          "type": "address"
        }
      ],
      "name": "NotificationTargetSet",
      "type": "event"
    },
    {
      "anonymous": false,
      "inputs": [
        {
          "indexed": true,
          "internalType": "bytes32",
          "name": "profileId",
          "type": "bytes32"
        },
        {
          "indexed": true,
          "internalType": "address",
          "name": "owner",
          "type": "address"
        },
        {
          "indexed": true,
          "internalType": "address",
          "name": "consumer",
          "type": "address"
        },
        {
          "indexed": false,
          "internalType": "uint64",
          "name": "timestamp",
          "type": "uint64"
        }
      ],
      "name": "ProfileCreated",
      "type": "event"
    },
    {
      "anonymous": false,
      "inputs": [
        {
          "indexed": true,
          "internalType": "bytes32",
          "name": "profileId",
          "type": "bytes32"
        },
        {
          "indexed": true,
          "internalType": "address",
          "name": "reporter",
          "type": "address"
        },
        {
          "indexed": false,
          "internalType": "bytes32",
          "name": "walrusBlobId",
          "type": "bytes32"
        },
        {
          "indexed": false,
          "internalType": "uint32",
          "name": "epoch",
          "type": "uint32"
        },
        {
          "indexed": false,
          "internalType": "uint64",
          "name": "timestamp",
          "type": "uint64"
        }
      ],
      "name": "SignalReported",
      "type": "event"
    },
    {
      "anonymous": false,
      "inputs": [
        {
          "indexed": true,
          "internalType": "bytes32",
          "name": "profileId",
          "type": "bytes32"
        },
        {
          "indexed": false,
          "internalType": "uint32",
          "name": "epoch",
          "type": "uint32"
        },
        {
          "indexed": false,
          "internalType": "bytes32",
          "name": "auditBlobId",
          "type": "bytes32"
        },
        {
          "indexed": false,
          "internalType": "uint64",
          "name": "timestamp",
          "type": "uint64"
        }
      ],
      "name": "ThresholdReached",
      "type": "event"
    },
    {
      "anonymous": false,
      "inputs": [
        {
          "indexed": true,
          "internalType": "bytes32",
          "name": "profileId",
          "type": "bytes32"
        },
        {
          "indexed": false,
          "internalType": "uint32",
          "name": "epoch",
          "type": "uint32"
        }
      ],
      "name": "WeightReset",
      "type": "event"
    },
    {
      "inputs": [],
      "name": "CAP_NEGATIVE",
      "outputs": [
        {
          "internalType": "uint8",
          "name": "",
          "type": "uint8"
        }
      ],
      "stateMutability": "view",
      "type": "function"
    },
    {
      "inputs": [],
      "name": "CAP_POSITIVE",
      "outputs": [
        {
          "internalType": "uint8",
          "name": "",
          "type": "uint8"
        }
      ],
      "stateMutability": "view",
      "type": "function"
    },
    {
      "inputs": [
        {
          "internalType": "bytes32",
          "name": "",
          "type": "bytes32"
        },
        {
          "internalType": "address",
          "name": "",
          "type": "address"
        }
      ],
      "name": "adapters",
      "outputs": [
        {
          "internalType": "bool",
          "name": "authorized",
          "type": "bool"
        },
        {
          "internalType": "uint32",
          "name": "weight",
          "type": "uint32"
        },
        {
          "internalType": "uint8",
          "name": "capabilities",
          "type": "uint8"
        },
        {
          "internalType": "bytes32",
          "name": "typeLabel",
          "type": "bytes32"
        }
      ],
      "stateMutability": "view",
      "type": "function"
    },
    {
      "inputs": [
        {
          "internalType": "bytes32",
          "name": "profileId",
          "type": "bytes32"
        },
        {
          "internalType": "address",
          "name": "adapter",
          "type": "address"
        },
        {
          "internalType": "uint32",
          "name": "weight",
          "type": "uint32"
        },
        {
          "internalType": "uint8",
          "name": "capabilities",
          "type": "uint8"
        },
        {
          "internalType": "bytes32",
          "name": "typeLabel",
          "type": "bytes32"
        }
      ],
      "name": "authorizeAdapter",
      "outputs": [],
      "stateMutability": "nonpayable",
      "type": "function"
    },
    {
      "inputs": [
        {
          "internalType": "bytes32",
          "name": "profileId",
          "type": "bytes32"
        }
      ],
      "name": "checkin",
      "outputs": [],
      "stateMutability": "nonpayable",
      "type": "function"
    },
    {
      "inputs": [
        {
          "internalType": "address",
          "name": "owner",
          "type": "address"
        },
        {
          "internalType": "address",
          "name": "consumer",
          "type": "address"
        }
      ],
      "name": "computeProfileId",
      "outputs": [
        {
          "internalType": "bytes32",
          "name": "",
          "type": "bytes32"
        }
      ],
      "stateMutability": "pure",
      "type": "function"
    },
    {
      "inputs": [
        {
          "internalType": "address",
          "name": "owner",
          "type": "address"
        },
        {
          "internalType": "uint32",
          "name": "threshold",
          "type": "uint32"
        }
      ],
      "name": "createProfile",
      "outputs": [
        {
          "internalType": "bytes32",
          "name": "profileId",
          "type": "bytes32"
        }
      ],
      "stateMutability": "nonpayable",
      "type": "function"
    },
    {
      "inputs": [
        {
          "internalType": "bytes32",
          "name": "profileId",
          "type": "bytes32"
        }
      ],
      "name": "finalize",
      "outputs": [],
      "stateMutability": "nonpayable",
      "type": "function"
    },
    {
      "inputs": [
        {
          "internalType": "bytes32",
          "name": "profileId",
          "type": "bytes32"
        }
      ],
      "name": "getAdapters",
      "outputs": [
        {
          "internalType": "address[]",
          "name": "",
          "type": "address[]"
        }
      ],
      "stateMutability": "view",
      "type": "function"
    },
    {
      "inputs": [
        {
          "internalType": "bytes32",
          "name": "",
          "type": "bytes32"
        }
      ],
      "name": "profiles",
      "outputs": [
        {
          "internalType": "address",
          "name": "owner",
          "type": "address"
        },
        {
          "internalType": "address",
          "name": "consumer",
          "type": "address"
        },
        {
          "internalType": "enum PulseOracle.LifecycleState",
          "name": "state",
          "type": "uint8"
        },
        {
          "internalType": "uint32",
          "name": "epoch",
          "type": "uint32"
        },
        {
          "internalType": "uint32",
          "name": "accumulatedWeight",
          "type": "uint32"
        },
        {
          "internalType": "address",
          "name": "notificationTarget",
          "type": "address"
        },
        {
          "components": [
            {
              "internalType": "uint32",
              "name": "threshold",
              "type": "uint32"
            },
            {
              "internalType": "uint32",
              "name": "missedAttemptWeight",
              "type": "uint32"
            }
          ],
          "internalType": "struct PulseOracle.Config",
          "name": "config",
          "type": "tuple"
        }
      ],
      "stateMutability": "view",
      "type": "function"
    },
    {
      "inputs": [
        {
          "internalType": "bytes32",
          "name": "profileId",
          "type": "bytes32"
        },
        {
          "internalType": "enum PulseOracle.SignalDirection",
          "name": "direction",
          "type": "uint8"
        },
        {
          "internalType": "bytes32",
          "name": "walrusBlobId",
          "type": "bytes32"
        }
      ],
      "name": "reportSignal",
      "outputs": [],
      "stateMutability": "nonpayable",
      "type": "function"
    },
    {
      "inputs": [
        {
          "internalType": "bytes32",
          "name": "profileId",
          "type": "bytes32"
        },
        {
          "internalType": "address",
          "name": "adapter",
          "type": "address"
        }
      ],
      "name": "revokeAdapter",
      "outputs": [],
      "stateMutability": "nonpayable",
      "type": "function"
    },
    {
      "inputs": [
        {
          "internalType": "bytes32",
          "name": "profileId",
          "type": "bytes32"
        },
        {
          "internalType": "uint32",
          "name": "threshold",
          "type": "uint32"
        }
      ],
      "name": "setConfig",
      "outputs": [],
      "stateMutability": "nonpayable",
      "type": "function"
    },
    {
      "inputs": [
        {
          "internalType": "bytes32",
          "name": "profileId",
          "type": "bytes32"
        },
        {
          "internalType": "address",
          "name": "target",
          "type": "address"
        }
      ],
      "name": "setNotificationTarget",
      "outputs": [],
      "stateMutability": "nonpayable",
      "type": "function"
    }
  ],
  "contractName": "PulseOracle",
  "sourceName": "contracts/PulseOracle.sol",
  "bytecode": "0x6080604052348015600e575f5ffd5b506116ff8061001c5f395ff3fe608060405234801561000f575f5ffd5b50600436106100e5575f3560e01c806392584d8011610088578063d2cc791211610063578063d2cc7912146102ba578063f58e5090146102cd578063f6cd82f9146102e0578063fac51c14146102f3575f5ffd5b806392584d8014610274578063af30651c14610287578063c2573dde146102a7575f5ffd5b806352f33682116100c357806352f336821461013057806362159740146101ce578063656e8d711461024b57806389c0aea91461026c575f5ffd5b8063011e5b02146100e957806329c1193d146101085780633ba26fe81461011d575b5f5ffd5b6100f1600281565b60405160ff90911681526020015b60405180910390f35b61011b610116366004611410565b610306565b005b61011b61012b36600461143a565b6103f3565b6101bb61013e36600461143a565b5f6020818152918152604090819020805460018201546002830154845180860190955260039093015463ffffffff80821686526401000000009091048116958501959095526001600160a01b039182169482821694600160a01b830460ff1694600160a81b8404831694600160c81b909404909216929091169087565b6040516100ff9796959493929190611485565b61021c6101dc366004611410565b600160208181525f93845260408085209091529183529120805491015460ff8083169263ffffffff61010082041692650100000000009091049091169084565b60408051941515855263ffffffff909316602085015260ff9091169183019190915260608201526080016100ff565b61025e610259366004611504565b610588565b6040519081526020016100ff565b6100f1600181565b61011b61028236600461143a565b610813565b61029a61029536600461143a565b61091a565b6040516100ff919061152c565b61025e6102b5366004611577565b610983565b61011b6102c836600461159f565b6109cc565b61011b6102db3660046115f7565b610cb2565b61011b6102ee366004611410565b610e13565b61011b610301366004611618565b611040565b5f8281526020819052604090206001015482906001600160a01b0316331461034157604051638c7dc13d60e01b815260040160405180910390fd5b825f5f82815260208190526040902060010154600160a01b900460ff16600381111561036f5761036f611451565b0361038d5760405163a2e2361360e01b815260040160405180910390fd5b5f848152602081815260409182902060020180546001600160a01b0319166001600160a01b038716908117909155915191825285917f1784c50fc38e3ed8d41bab9bb6407a81dcbc0f680c1966e518229c7e8b060947910160405180910390a250505050565b805f5f82815260208190526040902060010154600160a01b900460ff16600381111561042157610421611451565b0361043f5760405163a2e2361360e01b815260040160405180910390fd5b5f82815260208190526040902080546001600160a01b03163314610476576040516330cd747160e01b815260040160405180910390fd5b600180820154600160a01b900460ff16600381111561049757610497611451565b146104ce57600181015460405163e37d4aeb60e01b81526104c591600160a01b900460ff1690600401611650565b60405180910390fd5b60018101805463ffffffff60c81b191690819055604051600160a81b90910463ffffffff16815283907faa2476aca52fd48a0166aa898267e4011cfe7011b415a80a9178abf035063a359060200160405180910390a26001810154604080515f8152600160a81b90920463ffffffff16602083015267ffffffffffffffff421690820152339084907f308f99a872a1ab405ff0effd2b753774f1034bdee1ea7d507c53080558f546209060600160405180910390a3505050565b5f6001600160a01b0383166105b05760405163d92e233d60e01b815260040160405180910390fd5b8163ffffffff165f036105d65760405163831761d760e01b815260040160405180910390fd5b6105e08333610983565b90505f5f82815260208190526040902060010154600160a01b900460ff16600381111561060f5761060f611451565b1461062d57604051638d2c60db60e01b815260040160405180910390fd5b6040805160e0810182526001600160a01b0385811682523360208084019182526001848601818152606086018290525f6080870181905260a087018190528751808901895263ffffffff8b16815280850182905260c08801528881529283905295909120845181549085166001600160a01b0319918216178255925191810180549290941692821683178455945193949392916001600160a81b031990911617600160a01b8360038111156106e4576106e4611451565b02179055506060820151600182018054608085015167ffffffffffffffff60a81b19909116600160a81b63ffffffff9485160263ffffffff60c81b191617600160c81b9184169190910217905560a08301516002830180546001600160a01b0319166001600160a01b0392831617905560c09093015180516003909301805460209283015194841667ffffffffffffffff199091161764010000000094909316939093029190911790915560405167ffffffffffffffff42168152339286169184917f9cc003ce281799e2aae927589858ab8c65f587ce8bcf7e7acd1585622bb85373910160405180910390a460405163ffffffff8316815281907fcff91f21fc31d62857cfae8389280d510a8068acf6396ba419f857c88c3444109060200160405180910390a25b92915050565b805f5f82815260208190526040902060010154600160a01b900460ff16600381111561084157610841611451565b0361085f5760405163a2e2361360e01b815260040160405180910390fd5b5f82815260208190526040902060026001820154600160a01b900460ff16600381111561088e5761088e611451565b146108bc57600181015460405163e37d4aeb60e01b81526104c591600160a01b900460ff1690600401611650565b60018101805460ff60a01b1916600360a01b179081905560408051600160a81b90920463ffffffff1682525184917f6ce28f4431a1a2373a180c3d4150216e102de7b12a7ede0a5de1b9364caba8c5919081900360200190a2505050565b5f8181526002602090815260409182902080548351818402810184019094528084526060939283018282801561097757602002820191905f5260205f20905b81546001600160a01b03168152600190910190602001808311610959575b50505050509050919050565b6040516bffffffffffffffffffffffff19606084811b8216602084015283901b1660348201525f9060480160405160208183030381529060405280519060200120905092915050565b5f8581526020819052604090206001015485906001600160a01b03163314610a0757604051638c7dc13d60e01b815260040160405180910390fd5b855f5f82815260208190526040902060010154600160a01b900460ff166003811115610a3557610a35611451565b03610a535760405163a2e2361360e01b815260040160405180910390fd5b6001600160a01b038616610a7a5760405163d92e233d60e01b815260040160405180910390fd5b8463ffffffff165f03610aa0576040516319a2a9bd60e01b815260040160405180910390fd5b60ff84161580610ab3575060038460ff16115b15610ad1576040516371cfc19160e11b815260040160405180910390fd5b5f8781526020819052604090206003015463ffffffff908116908616811015610b0d576040516332ee58bf60e01b815260040160405180910390fd5b5f60015f8a81526020019081526020015f205f896001600160a01b03166001600160a01b031681526020019081526020015f205f015f9054906101000a900460ff1615905060405180608001604052806001151581526020018863ffffffff1681526020018760ff1681526020018681525060015f8b81526020019081526020015f205f8a6001600160a01b03166001600160a01b031681526020019081526020015f205f820151815f015f6101000a81548160ff0219169083151502179055506020820151815f0160016101000a81548163ffffffff021916908363ffffffff1602179055506040820151815f0160056101000a81548160ff021916908360ff160217905550606082015181600101559050508015610c5e575f8981526002602090815260408220805460018101825590835291200180546001600160a01b0319166001600160a01b038a161790555b6040805160ff88168152602081018790526001600160a01b038a16918b917fafb60f879df17e4649d78aeefd04b782b2b18962c479f198ef77bc4268125757910160405180910390a3505050505050505050565b5f8281526020819052604090206001015482906001600160a01b03163314610ced57604051638c7dc13d60e01b815260040160405180910390fd5b825f5f82815260208190526040902060010154600160a01b900460ff166003811115610d1b57610d1b611451565b03610d395760405163a2e2361360e01b815260040160405180910390fd5b8263ffffffff165f03610d5f5760405163831761d760e01b815260040160405180910390fd5b5f848152602081815260409182902060038101805463ffffffff191663ffffffff881690811790915592519283529186917fcff91f21fc31d62857cfae8389280d510a8068acf6396ba419f857c88c344410910160405180910390a2600180820154600160a01b900460ff166003811115610ddc57610ddc611451565b148015610dfd5750600181015463ffffffff808616600160c81b9092041610155b15610e0c57610e0c855f6112ff565b5050505050565b5f8281526020819052604090206001015482906001600160a01b03163314610e4e57604051638c7dc13d60e01b815260040160405180910390fd5b825f5f82815260208190526040902060010154600160a01b900460ff166003811115610e7c57610e7c611451565b03610e9a5760405163a2e2361360e01b815260040160405180910390fd5b5f8481526001602090815260408083206001600160a01b038716845290915290205460ff16610edc57604051630ce1506f60e41b815260040160405180910390fd5b5f8481526001602090815260408083206001600160a01b03871684528252808320805460ff1916905586835260029091528120805490915b8181101561100257856001600160a01b0316838281548110610f3857610f3861165e565b5f918252602090912001546001600160a01b031603610ffa5782610f5d600184611686565b81548110610f6d57610f6d61165e565b905f5260205f20015f9054906101000a90046001600160a01b0316838281548110610f9a57610f9a61165e565b905f5260205f20015f6101000a8154816001600160a01b0302191690836001600160a01b0316021790555082805480610fd557610fd5611699565b5f8281526020902081015f1990810180546001600160a01b0319169055019055611002565b600101610f14565b506040516001600160a01b0386169087907f2bfc672162a1d448dc0c9419afd5da8766cab411d41deae3359df0bc156bdf88905f90a3505050505050565b825f5f82815260208190526040902060010154600160a01b900460ff16600381111561106e5761106e611451565b0361108c5760405163a2e2361360e01b815260040160405180910390fd5b5f8481526020818152604080832060018352818420338552909252909120805460ff166110cc57604051637113905760e11b815260040160405180910390fd5b5f8560018111156110df576110df611451565b1480156110f757508054650100000000009004600116155b15611115576040516371cfc19160e11b815260040160405180910390fd5b600185600181111561112957611129611451565b14801561114157508054650100000000009004600216155b1561115f576040516371cfc19160e11b815260040160405180910390fd5b600180830154600160a01b900460ff16600381111561118057611180611451565b146111ae57600182015460405163e37d4aeb60e01b81526104c591600160a01b900460ff1690600401611650565b5f8560018111156111c1576111c1611451565b0361121557805460018301805463ffffffff6101009093048316926019916111f2918591600160c81b9004166116ad565b92506101000a81548163ffffffff021916908363ffffffff16021790555061126c565b60018201805463ffffffff60c81b191690819055604051600160a81b90910463ffffffff16815286907faa2476aca52fd48a0166aa898267e4011cfe7011b415a80a9178abf035063a359060200160405180910390a25b600182015460408051868152600160a81b90920463ffffffff16602083015267ffffffffffffffff421690820152339087907f308f99a872a1ab405ff0effd2b753774f1034bdee1ea7d507c53080558f546209060600160405180910390a36003820154600183015463ffffffff918216600160c81b909104909116106112f7576112f786856112ff565b505050505050565b5f828152602081815260409182902060018101805460ff60a01b1916600160a11b17908190558351600160a81b90910463ffffffff16815291820184905267ffffffffffffffff421682840152915184917f95eb3307bc739f0b256ab1f6c77093591690e03d9d34f1efe0651dc011f68713916060918190039190910190a260028101546001600160a01b0316156113f0576002810154604051635525ac6f60e01b815260048101859052602481018490526001600160a01b0390911690635525ac6f906044015f604051808303815f87803b1580156113dd575f5ffd5b505af19250505080156113ee575060015b505b505050565b80356001600160a01b038116811461140b575f5ffd5b919050565b5f5f60408385031215611421575f5ffd5b82359150611431602084016113f5565b90509250929050565b5f6020828403121561144a575f5ffd5b5035919050565b634e487b7160e01b5f52602160045260245ffd5b6004811061148157634e487b7160e01b5f52602160045260245ffd5b9052565b6001600160a01b0388811682528716602082015261010081016114ab6040830188611465565b63ffffffff958616606083015293851660808201526001600160a01b039290921660a08301528051841660c08301526020015190921660e0909201919091529392505050565b803563ffffffff8116811461140b575f5ffd5b5f5f60408385031215611515575f5ffd5b61151e836113f5565b9150611431602084016114f1565b602080825282518282018190525f918401906040840190835b8181101561156c5783516001600160a01b0316835260209384019390920191600101611545565b509095945050505050565b5f5f60408385031215611588575f5ffd5b611591836113f5565b9150611431602084016113f5565b5f5f5f5f5f60a086880312156115b3575f5ffd5b853594506115c3602087016113f5565b93506115d1604087016114f1565b9250606086013560ff811681146115e6575f5ffd5b949793965091946080013592915050565b5f5f60408385031215611608575f5ffd5b82359150611431602084016114f1565b5f5f5f6060848603121561162a575f5ffd5b8335925060208401356002811061163f575f5ffd5b929592945050506040919091013590565b6020810161080d8284611465565b634e487b7160e01b5f52603260045260245ffd5b634e487b7160e01b5f52601160045260245ffd5b8181038181111561080d5761080d611672565b634e487b7160e01b5f52603160045260245ffd5b63ffffffff818116838216019081111561080d5761080d61167256fea2646970667358221220672cbe89f773c5e9c7a2e7e6a6720ebca5f5deb47f7f597d8b0f9812a879e18f64736f6c634300081e0033",
  "linkReferences": {},
  "deployedLinkReferences": {},
  "immutableReferences": {},
  "inputSourceName": "project/contracts/PulseOracle.sol",
  "devdoc": {
    "details": "World ID, attempts, windows, commit-reveal, block/resurrect are added in subsequent iterations.",
    "kind": "dev",
    "methods": {
      "checkin(bytes32)": {
        "details": "In later versions this requires a World ID proof."
      },
      "createProfile(address,uint32)": {
        "details": "In later versions, owner must provide a World ID proof here."
      }
    },
    "title": "PulseOracle v0.1 - Core accumulator",
    "version": 1
  },
  "evm": {
    "gasEstimates": {
      "creation": {
        "codeDepositCost": "1177400",
        "executionCost": "1219",
        "totalCost": "1178619"
      },
      "external": {
        "CAP_NEGATIVE()": "281",
        "CAP_POSITIVE()": "216",
        "adapters(bytes32,address)": "4915",
        "authorizeAdapter(bytes32,address,uint32,uint8,bytes32)": "infinite",
        "checkin(bytes32)": "37126",
        "computeProfileId(address,address)": "infinite",
        "createProfile(address,uint32)": "infinite",
        "finalize(bytes32)": "30457",
        "getAdapters(bytes32)": "infinite",
        "profiles(bytes32)": "9350",
        "reportSignal(bytes32,uint8,bytes32)": "infinite",
        "revokeAdapter(bytes32,address)": "infinite",
        "setConfig(bytes32,uint32)": "infinite",
        "setNotificationTarget(bytes32,address)": "30625"
      },
      "internal": {
        "_reachThreshold(bytes32,bytes32)": "infinite"
      }
    }
  },
  "storageLayout": {
    "storage": [
      {
        "astId": 54,
        "contract": "project/contracts/PulseOracle.sol:PulseOracle",
        "label": "profiles",
        "offset": 0,
        "slot": "0",
        "type": "t_mapping(t_bytes32,t_struct(Profile)40_storage)"
      },
      {
        "astId": 61,
        "contract": "project/contracts/PulseOracle.sol:PulseOracle",
        "label": "adapters",
        "offset": 0,
        "slot": "1",
        "type": "t_mapping(t_bytes32,t_mapping(t_address,t_struct(AdapterAuth)49_storage))"
      },
      {
        "astId": 66,
        "contract": "project/contracts/PulseOracle.sol:PulseOracle",
        "label": "_adapterList",
        "offset": 0,
        "slot": "2",
        "type": "t_mapping(t_bytes32,t_array(t_address)dyn_storage)"
      }
    ],
    "types": {
      "t_address": {
        "encoding": "inplace",
        "label": "address",
        "numberOfBytes": "20"
      },
      "t_array(t_address)dyn_storage": {
        "base": "t_address",
        "encoding": "dynamic_array",
        "label": "address[]",
        "numberOfBytes": "32"
      },
      "t_bool": {
        "encoding": "inplace",
        "label": "bool",
        "numberOfBytes": "1"
      },
      "t_bytes32": {
        "encoding": "inplace",
        "label": "bytes32",
        "numberOfBytes": "32"
      },
      "t_enum(LifecycleState)9": {
        "encoding": "inplace",
        "label": "enum PulseOracle.LifecycleState",
        "numberOfBytes": "1"
      },
      "t_mapping(t_address,t_struct(AdapterAuth)49_storage)": {
        "encoding": "mapping",
        "key": "t_address",
        "label": "mapping(address => struct PulseOracle.AdapterAuth)",
        "numberOfBytes": "32",
        "value": "t_struct(AdapterAuth)49_storage"
      },
      "t_mapping(t_bytes32,t_array(t_address)dyn_storage)": {
        "encoding": "mapping",
        "key": "t_bytes32",
        "label": "mapping(bytes32 => address[])",
        "numberOfBytes": "32",
        "value": "t_array(t_address)dyn_storage"
      },
      "t_mapping(t_bytes32,t_mapping(t_address,t_struct(AdapterAuth)49_storage))": {
        "encoding": "mapping",
        "key": "t_bytes32",
        "label": "mapping(bytes32 => mapping(address => struct PulseOracle.AdapterAuth))",
        "numberOfBytes": "32",
        "value": "t_mapping(t_address,t_struct(AdapterAuth)49_storage)"
      },
      "t_mapping(t_bytes32,t_struct(Profile)40_storage)": {
        "encoding": "mapping",
        "key": "t_bytes32",
        "label": "mapping(bytes32 => struct PulseOracle.Profile)",
        "numberOfBytes": "32",
        "value": "t_struct(Profile)40_storage"
      },
      "t_struct(AdapterAuth)49_storage": {
        "encoding": "inplace",
        "label": "struct PulseOracle.AdapterAuth",
        "members": [
          {
            "astId": 42,
            "contract": "project/contracts/PulseOracle.sol:PulseOracle",
            "label": "authorized",
            "offset": 0,
            "slot": "0",
            "type": "t_bool"
          },
          {
            "astId": 44,
            "contract": "project/contracts/PulseOracle.sol:PulseOracle",
            "label": "weight",
            "offset": 1,
            "slot": "0",
            "type": "t_uint32"
          },
          {
            "astId": 46,
            "contract": "project/contracts/PulseOracle.sol:PulseOracle",
            "label": "capabilities",
            "offset": 5,
            "slot": "0",
            "type": "t_uint8"
          },
          {
            "astId": 48,
            "contract": "project/contracts/PulseOracle.sol:PulseOracle",
            "label": "typeLabel",
            "offset": 0,
            "slot": "1",
            "type": "t_bytes32"
          }
        ],
        "numberOfBytes": "64"
      },
      "t_struct(Config)23_storage": {
        "encoding": "inplace",
        "label": "struct PulseOracle.Config",
        "members": [
          {
            "astId": 20,
            "contract": "project/contracts/PulseOracle.sol:PulseOracle",
            "label": "threshold",
            "offset": 0,
            "slot": "0",
            "type": "t_uint32"
          },
          {
            "astId": 22,
            "contract": "project/contracts/PulseOracle.sol:PulseOracle",
            "label": "missedAttemptWeight",
            "offset": 4,
            "slot": "0",
            "type": "t_uint32"
          }
        ],
        "numberOfBytes": "32"
      },
      "t_struct(Profile)40_storage": {
        "encoding": "inplace",
        "label": "struct PulseOracle.Profile",
        "members": [
          {
            "astId": 25,
            "contract": "project/contracts/PulseOracle.sol:PulseOracle",
            "label": "owner",
            "offset": 0,
            "slot": "0",
            "type": "t_address"
          },
          {
            "astId": 27,
            "contract": "project/contracts/PulseOracle.sol:PulseOracle",
            "label": "consumer",
            "offset": 0,
            "slot": "1",
            "type": "t_address"
          },
          {
            "astId": 30,
            "contract": "project/contracts/PulseOracle.sol:PulseOracle",
            "label": "state",
            "offset": 20,
            "slot": "1",
            "type": "t_enum(LifecycleState)9"
          },
          {
            "astId": 32,
            "contract": "project/contracts/PulseOracle.sol:PulseOracle",
            "label": "epoch",
            "offset": 21,
            "slot": "1",
            "type": "t_uint32"
          },
          {
            "astId": 34,
            "contract": "project/contracts/PulseOracle.sol:PulseOracle",
            "label": "accumulatedWeight",
            "offset": 25,
            "slot": "1",
            "type": "t_uint32"
          },
          {
            "astId": 36,
            "contract": "project/contracts/PulseOracle.sol:PulseOracle",
            "label": "notificationTarget",
            "offset": 0,
            "slot": "2",
            "type": "t_address"
          },
          {
            "astId": 39,
            "contract": "project/contracts/PulseOracle.sol:PulseOracle",
            "label": "config",
            "offset": 0,
            "slot": "3",
            "type": "t_struct(Config)23_storage"
          }
        ],
        "numberOfBytes": "128"
      },
      "t_uint32": {
        "encoding": "inplace",
        "label": "uint32",
        "numberOfBytes": "4"
      },
      "t_uint8": {
        "encoding": "inplace",
        "label": "uint8",
        "numberOfBytes": "1"
      }
    }
  },
  "userdoc": {
    "kind": "user",
    "methods": {
      "checkin(bytes32)": {
        "notice": "Owner checks in, resetting accumulated weight."
      },
      "computeProfileId(address,address)": {
        "notice": "Compute profileId from owner and consumer addresses"
      },
      "createProfile(address,uint32)": {
        "notice": "Create a profile. msg.sender is the consumer. owner is the user being monitored."
      },
      "finalize(bytes32)": {
        "notice": "Finalize a profile that has reached threshold (no challenge period in v0.1)"
      },
      "getAdapters(bytes32)": {
        "notice": "Get the list of adapter addresses for a profile"
      },
      "reportSignal(bytes32,uint8,bytes32)": {
        "notice": "Report a signal for a profile. Called by authorized adapters."
      }
    },
    "notice": "Minimal version: profile creation, adapter authorization, signal reporting, threshold detection.",
    "version": 1
  },
  "argsData": "0x",
  "transaction": {
    "hash": "0xca88e04d59ff696eee814e4b89bd4ecc274e1e6da17d4eb87194d0cce0f7d8e3",
    "nonce": "0x36",
    "origin": "0x4d7a23045f7c76dc57e2afd2eb038e2cf743e284"
  }
}