{
  "address": "0x41e60b7c2f067a3bb5a655959c944f7f28bd66e3",
  "abi": [
    {
      "inputs": [
        {
          "internalType": "contract IWorldID",
          "name": "worldId_",
          "type": "address"
        }
      ],
      "stateMutability": "nonpayable",
      "type": "constructor"
    },
    {
      "inputs": [],
      "name": "AdapterNotAuthorized",
      "type": "error"
    },
    {
      "inputs": [],
      "name": "CapabilityNotAllowed",
      "type": "error"
    },
    {
      "inputs": [],
      "name": "EmptyWalrusBlobId",
      "type": "error"
    },
    {
      "inputs": [],
      "name": "InvalidExternalNullifier",
      "type": "error"
    },
    {
      "inputs": [],
      "name": "InvalidSignalHash",
      "type": "error"
    },
    {
      "inputs": [],
      "name": "NotAuthorizedAdapter",
      "type": "error"
    },
    {
      "inputs": [],
      "name": "NotConsumer",
      "type": "error"
    },
    {
      "inputs": [],
      "name": "NotOwner",
      "type": "error"
    },
    {
      "inputs": [],
      "name": "NullifierAlreadyUsed",
      "type": "error"
    },
    {
      "inputs": [],
      "name": "ProfileExists",
      "type": "error"
    },
    {
      "inputs": [],
      "name": "ProfileMissing",
      "type": "error"
    },
    {
      "inputs": [],
      "name": "ReentrancyGuardReentrantCall",
      "type": "error"
    },
    {
      "inputs": [],
      "name": "WeightExceedsThreshold",
      "type": "error"
    },
    {
      "inputs": [
        {
          "internalType": "enum PulseOracleV2.LifecycleState",
          "name": "current",
          "type": "uint8"
        }
      ],
      "name": "WrongState",
      "type": "error"
    },
    {
      "inputs": [],
      "name": "ZeroAddress",
      "type": "error"
    },
    {
      "inputs": [],
      "name": "ZeroThreshold",
      "type": "error"
    },
    {
      "inputs": [],
      "name": "ZeroWeight",
      "type": "error"
    },
    {
      "anonymous": false,
      "inputs": [
        {
          "indexed": true,
          "internalType": "bytes32",
          "name": "profileId",
          "type": "bytes32"
        },
        {
          "indexed": true,
          "internalType": "address",
          "name": "adapter",
          "type": "address"
        },
        {
          "indexed": false,
          "internalType": "uint8",
          "name": "capabilities",
          "type": "uint8"
        },
        {
          "indexed": false,
          "internalType": "bytes32",
          "name": "typeLabel",
          "type": "bytes32"
        }
      ],
      "name": "AdapterAuthorized",
      "type": "event"
    },
    {
      "anonymous": false,
      "inputs": [
        {
          "indexed": true,
          "internalType": "bytes32",
          "name": "profileId",
          "type": "bytes32"
        },
        {
          "indexed": true,
          "internalType": "address",
          "name": "adapter",
          "type": "address"
        }
      ],
      "name": "AdapterRevoked",
      "type": "event"
    },
    {
      "anonymous": false,
      "inputs": [
        {
          "indexed": true,
          "internalType": "bytes32",
          "name": "profileId",
          "type": "bytes32"
        },
        {
          "indexed": false,
          "internalType": "uint32",
          "name": "threshold",
          "type": "uint32"
        }
      ],
      "name": "ConfigUpdated",
      "type": "event"
    },
    {
      "anonymous": false,
      "inputs": [
        {
          "indexed": true,
          "internalType": "bytes32",
          "name": "profileId",
          "type": "bytes32"
        },
        {
          "indexed": false,
          "internalType": "uint32",
          "name": "epoch",
          "type": "uint32"
        }
      ],
      "name": "Finalized",
      "type": "event"
    },
    {
      "anonymous": false,
      "inputs": [
        {
          "indexed": true,
          "internalType": "bytes32",
          "name": "profileId",
          "type": "bytes32"
        },
        {
          "indexed": false,
          "internalType": "address",
          "name": "target",
          "type": "address"
        }
      ],
      "name": "NotificationTargetSet",
      "type": "event"
    },
    {
      "anonymous": false,
      "inputs": [
        {
          "indexed": true,
          "internalType": "bytes32",
          "name": "profileId",
          "type": "bytes32"
        },
        {
          "indexed": true,
          "internalType": "address",
          "name": "owner",
          "type": "address"
        },
        {
          "indexed": true,
          "internalType": "address",
          "name": "consumer",
          "type": "address"
        },
        {
          "indexed": false,
          "internalType": "uint64",
          "name": "timestamp",
          "type": "uint64"
        }
      ],
      "name": "ProfileCreated",
      "type": "event"
    },
    {
      "anonymous": false,
      "inputs": [
        {
          "indexed": true,
          "internalType": "bytes32",
          "name": "profileId",
          "type": "bytes32"
        },
        {
          "indexed": true,
          "internalType": "address",
          "name": "reporter",
          "type": "address"
        },
        {
          "indexed": false,
          "internalType": "bytes32",
          "name": "walrusBlobId",
          "type": "bytes32"
        },
        {
          "indexed": false,
          "internalType": "uint32",
          "name": "epoch",
          "type": "uint32"
        },
        {
          "indexed": false,
          "internalType": "uint64",
          "name": "timestamp",
          "type": "uint64"
        }
      ],
      "name": "SignalReported",
      "type": "event"
    },
    {
      "anonymous": false,
      "inputs": [
        {
          "indexed": true,
          "internalType": "bytes32",
          "name": "profileId",
          "type": "bytes32"
        },
        {
          "indexed": false,
          "internalType": "uint32",
          "name": "epoch",
          "type": "uint32"
        },
        {
          "indexed": false,
          "internalType": "bytes32",
          "name": "auditBlobId",
          "type": "bytes32"
        },
        {
          "indexed": false,
          "internalType": "uint64",
          "name": "timestamp",
          "type": "uint64"
        }
      ],
      "name": "ThresholdReached",
      "type": "event"
    },
    {
      "anonymous": false,
      "inputs": [
        {
          "indexed": true,
          "internalType": "bytes32",
          "name": "profileId",
          "type": "bytes32"
        },
        {
          "indexed": false,
          "internalType": "uint32",
          "name": "epoch",
          "type": "uint32"
        }
      ],
      "name": "WeightReset",
      "type": "event"
    },
    {
      "inputs": [],
      "name": "CAP_NEGATIVE",
      "outputs": [
        {
          "internalType": "uint8",
          "name": "",
          "type": "uint8"
        }
      ],
      "stateMutability": "view",
      "type": "function"
    },
    {
      "inputs": [],
      "name": "CAP_POSITIVE",
      "outputs": [
        {
          "internalType": "uint8",
          "name": "",
          "type": "uint8"
        }
      ],
      "stateMutability": "view",
      "type": "function"
    },
    {
      "inputs": [],
      "name": "WORLD_ID_GROUP_ID",
      "outputs": [
        {
          "internalType": "uint256",
          "name": "",
          "type": "uint256"
        }
      ],
      "stateMutability": "view",
      "type": "function"
    },
    {
      "inputs": [
        {
          "internalType": "bytes32",
          "name": "",
          "type": "bytes32"
        },
        {
          "internalType": "address",
          "name": "",
          "type": "address"
        }
      ],
      "name": "adapters",
      "outputs": [
        {
          "internalType": "bool",
          "name": "authorized",
          "type": "bool"
        },
        {
          "internalType": "uint32",
          "name": "weight",
          "type": "uint32"
        },
        {
          "internalType": "uint8",
          "name": "capabilities",
          "type": "uint8"
        },
        {
          "internalType": "bytes32",
          "name": "typeLabel",
          "type": "bytes32"
        }
      ],
      "stateMutability": "view",
      "type": "function"
    },
    {
      "inputs": [
        {
          "internalType": "bytes32",
          "name": "profileId",
          "type": "bytes32"
        },
        {
          "internalType": "address",
          "name": "adapter",
          "type": "address"
        },
        {
          "internalType": "uint32",
          "name": "weight",
          "type": "uint32"
        },
        {
          "internalType": "uint8",
          "name": "capabilities",
          "type": "uint8"
        },
        {
          "internalType": "bytes32",
          "name": "typeLabel",
          "type": "bytes32"
        }
      ],
      "name": "authorizeAdapter",
      "outputs": [],
      "stateMutability": "nonpayable",
      "type": "function"
    },
    {
      "inputs": [
        {
          "internalType": "bytes32",
          "name": "profileId",
          "type": "bytes32"
        },
        {
          "internalType": "uint256",
          "name": "root",
          "type": "uint256"
        },
        {
          "internalType": "uint256",
          "name": "nullifierHash",
          "type": "uint256"
        },
        {
          "internalType": "uint256",
          "name": "externalNullifierHash",
          "type": "uint256"
        },
        {
          "internalType": "uint256",
          "name": "signalHash",
          "type": "uint256"
        },
        {
          "internalType": "uint256[8]",
          "name": "proof",
          "type": "uint256[8]"
        }
      ],
      "name": "checkin",
      "outputs": [],
      "stateMutability": "nonpayable",
      "type": "function"
    },
    {
      "inputs": [
        {
          "internalType": "address",
          "name": "owner",
          "type": "address"
        },
        {
          "internalType": "address",
          "name": "consumer",
          "type": "address"
        }
      ],
      "name": "computeProfileId",
      "outputs": [
        {
          "internalType": "bytes32",
          "name": "",
          "type": "bytes32"
        }
      ],
      "stateMutability": "pure",
      "type": "function"
    },
    {
      "inputs": [
        {
          "internalType": "address",
          "name": "owner",
          "type": "address"
        },
        {
          "internalType": "uint32",
          "name": "threshold",
          "type": "uint32"
        }
      ],
      "name": "createProfile",
      "outputs": [
        {
          "internalType": "bytes32",
          "name": "profileId",
          "type": "bytes32"
        }
      ],
      "stateMutability": "nonpayable",
      "type": "function"
    },
    {
      "inputs": [
        {
          "internalType": "bytes32",
          "name": "profileId",
          "type": "bytes32"
        }
      ],
      "name": "finalize",
      "outputs": [],
      "stateMutability": "nonpayable",
      "type": "function"
    },
    {
      "inputs": [
        {
          "internalType": "bytes32",
          "name": "profileId",
          "type": "bytes32"
        }
      ],
      "name": "getAdapters",
      "outputs": [
        {
          "internalType": "address[]",
          "name": "",
          "type": "address[]"
        }
      ],
      "stateMutability": "view",
      "type": "function"
    },
    {
      "inputs": [
        {
          "internalType": "bytes32",
          "name": "profileId",
          "type": "bytes32"
        }
      ],
      "name": "getCheckinWorldIdParams",
      "outputs": [
        {
          "internalType": "uint256",
          "name": "signalHash",
          "type": "uint256"
        },
        {
          "internalType": "uint256",
          "name": "externalNullifierHash",
          "type": "uint256"
        }
      ],
      "stateMutability": "view",
      "type": "function"
    },
    {
      "inputs": [
        {
          "internalType": "uint256",
          "name": "",
          "type": "uint256"
        }
      ],
      "name": "nullifierUsed",
      "outputs": [
        {
          "internalType": "bool",
          "name": "",
          "type": "bool"
        }
      ],
      "stateMutability": "view",
      "type": "function"
    },
    {
      "inputs": [
        {
          "internalType": "bytes32",
          "name": "",
          "type": "bytes32"
        }
      ],
      "name": "profiles",
      "outputs": [
        {
          "internalType": "address",
          "name": "owner",
          "type": "address"
        },
        {
          "internalType": "address",
          "name": "consumer",
          "type": "address"
        },
        {
          "internalType": "enum PulseOracleV2.LifecycleState",
          "name": "state",
          "type": "uint8"
        },
        {
          "internalType": "uint32",
          "name": "epoch",
          "type": "uint32"
        },
        {
          "internalType": "uint32",
          "name": "accumulatedWeight",
          "type": "uint32"
        },
        {
          "internalType": "address",
          "name": "notificationTarget",
          "type": "address"
        },
        {
          "components": [
            {
              "internalType": "uint32",
              "name": "threshold",
              "type": "uint32"
            },
            {
              "internalType": "uint32",
              "name": "missedAttemptWeight",
              "type": "uint32"
            }
          ],
          "internalType": "struct PulseOracleV2.Config",
          "name": "config",
          "type": "tuple"
        }
      ],
      "stateMutability": "view",
      "type": "function"
    },
    {
      "inputs": [
        {
          "internalType": "bytes32",
          "name": "profileId",
          "type": "bytes32"
        },
        {
          "internalType": "enum PulseOracleV2.SignalDirection",
          "name": "direction",
          "type": "uint8"
        },
        {
          "internalType": "bytes32",
          "name": "walrusBlobId",
          "type": "bytes32"
        }
      ],
      "name": "reportSignal",
      "outputs": [],
      "stateMutability": "nonpayable",
      "type": "function"
    },
    {
      "inputs": [
        {
          "internalType": "bytes32",
          "name": "profileId",
          "type": "bytes32"
        },
        {
          "internalType": "address",
          "name": "adapter",
          "type": "address"
        }
      ],
      "name": "revokeAdapter",
      "outputs": [],
      "stateMutability": "nonpayable",
      "type": "function"
    },
    {
      "inputs": [
        {
          "internalType": "bytes32",
          "name": "profileId",
          "type": "bytes32"
        },
        {
          "internalType": "uint32",
          "name": "threshold",
          "type": "uint32"
        }
      ],
      "name": "setConfig",
      "outputs": [],
      "stateMutability": "nonpayable",
      "type": "function"
    },
    {
      "inputs": [
        {
          "internalType": "bytes32",
          "name": "profileId",
          "type": "bytes32"
        },
        {
          "internalType": "address",
          "name": "target",
          "type": "address"
        }
      ],
      "name": "setNotificationTarget",
      "outputs": [],
      "stateMutability": "nonpayable",
      "type": "function"
    },
    {
      "inputs": [],
      "name": "worldId",
      "outputs": [
        {
          "internalType": "contract IWorldID",
          "name": "",
          "type": "address"
        }
      ],
      "stateMutability": "view",
      "type": "function"
    }
  ],
  "contractName": "PulseOracleV2",
  "sourceName": "contracts/PulseOracleV2.sol",
  "bytecode": "0x60a060405234801561000f575f5ffd5b50604051611f67380380611f6783398101604081905261002e9161008a565b60017f9b779b17422d0df92223018b32b4d1fa46e071723d6817e2486d003becc55f00556001600160a01b0381166100795760405163d92e233d60e01b815260040160405180910390fd5b6001600160a01b03166080526100b7565b5f6020828403121561009a575f5ffd5b81516001600160a01b03811681146100b0575f5ffd5b9392505050565b608051611e916100d65f395f81816102a5015261064f0152611e915ff3fe608060405234801561000f575f5ffd5b5060043610610111575f3560e01c806389c0aea91161009e578063c2573dde1161006e578063c2573dde14610374578063d2cc791214610387578063f58e50901461039a578063f6cd82f9146103ad578063fac51c14146103c0575f5ffd5b806389c0aea91461031157806392584d8014610319578063af30651c1461032c578063bbce9eaf1461034c575f5ffd5b80635ed89c25116100e45780635ed89c25146101fd5780636215974014610210578063656e8d711461028d578063753e9ef0146102a057806379f95ee9146102df575f5ffd5b8063011e5b0214610115578063027a91331461013457806329c1193d1461014a57806352f336821461015f575b5f5ffd5b61011d600281565b60405160ff90911681526020015b60405180910390f35b61013c600181565b60405190815260200161012b565b61015d610158366004611960565b6103d3565b005b6101ea61016d36600461198a565b5f6020818152918152604090819020805460018201546002830154845180860190955260039093015463ffffffff80821686526401000000009091048116958501959095526001600160a01b039182169482821694600160a01b830460ff1694600160a81b8404831694600160c81b909404909216929091169087565b60405161012b97969594939291906119d5565b61015d61020b366004611a41565b6104c0565b61025e61021e366004611960565b600160208181525f93845260408085209091529183529120805491015460ff8083169263ffffffff61010082041692650100000000009091049091169084565b60408051941515855263ffffffff909316602085015260ff90911691830191909152606082015260800161012b565b61013c61029b366004611aaa565b6107aa565b6102c77f000000000000000000000000000000000000000000000000000000000000000081565b6040516001600160a01b03909116815260200161012b565b6103016102ed36600461198a565b60036020525f908152604090205460ff1681565b604051901515815260200161012b565b61011d600181565b61015d61032736600461198a565b610a35565b61033f61033a36600461198a565b610b3c565b60405161012b9190611ad2565b61035f61035a36600461198a565b610ba5565b6040805192835260208301919091520161012b565b61013c610382366004611b1d565b610c30565b61015d610395366004611b45565b610c79565b61015d6103a8366004611b9d565b610f5f565b61015d6103bb366004611960565b6110c0565b61015d6103ce366004611bbe565b6112ed565b5f8281526020819052604090206001015482906001600160a01b0316331461040e57604051638c7dc13d60e01b815260040160405180910390fd5b825f5f82815260208190526040902060010154600160a01b900460ff16600381111561043c5761043c6119a1565b0361045a5760405163a2e2361360e01b815260040160405180910390fd5b5f848152602081815260409182902060020180546001600160a01b0319166001600160a01b038716908117909155915191825285917f1784c50fc38e3ed8d41bab9bb6407a81dcbc0f680c1966e518229c7e8b060947910160405180910390a250505050565b6104c86115e8565b855f5f82815260208190526040902060010154600160a01b900460ff1660038111156104f6576104f66119a1565b036105145760405163a2e2361360e01b815260040160405180910390fd5b5f87815260208190526040902080546001600160a01b0316331461054b576040516330cd747160e01b815260040160405180910390fd5b600180820154600160a01b900460ff16600381111561056c5761056c6119a1565b146105a357600181015460405163e37d4aeb60e01b815261059a91600160a01b900460ff1690600401611bf6565b60405180910390fd5b5f8681526003602052604090205460ff16156105d257604051636569570160e11b815260040160405180910390fd5b80546105e6906001600160a01b0316611603565b851461060557604051634ee1c9ef60e11b815260040160405180910390fd5b8054610619906001600160a01b031661161e565b8414610638576040516335ea32f960e11b815260040160405180910390fd5b604051633bc778e360e01b81526001600160a01b037f00000000000000000000000000000000000000000000000000000000000000001690633bc778e39061068f908a9060019089908c908c908b90600401611c04565b5f6040518083038186803b1580156106a5575f5ffd5b505afa1580156106b7573d5f5f3e3d5ffd5b5050505f87815260036020908152604091829020805460ff191660019081179091558401805463ffffffff60c81b1916908190559151600160a81b90920463ffffffff1682528a92507faa2476aca52fd48a0166aa898267e4011cfe7011b415a80a9178abf035063a35910160405180910390a26001810154604080515f8152600160a81b90920463ffffffff16602083015267ffffffffffffffff421690820152339089907f308f99a872a1ab405ff0effd2b753774f1034bdee1ea7d507c53080558f546209060600160405180910390a350506107a260015f516020611e3c5f395f51905f5255565b505050505050565b5f6001600160a01b0383166107d25760405163d92e233d60e01b815260040160405180910390fd5b8163ffffffff165f036107f85760405163831761d760e01b815260040160405180910390fd5b6108028333610c30565b90505f5f82815260208190526040902060010154600160a01b900460ff166003811115610831576108316119a1565b1461084f57604051638d2c60db60e01b815260040160405180910390fd5b6040805160e0810182526001600160a01b0385811682523360208084019182526001848601818152606086018290525f6080870181905260a087018190528751808901895263ffffffff8b16815280850182905260c08801528881529283905295909120845181549085166001600160a01b0319918216178255925191810180549290941692821683178455945193949392916001600160a81b031990911617600160a01b836003811115610906576109066119a1565b02179055506060820151600182018054608085015167ffffffffffffffff60a81b19909116600160a81b63ffffffff9485160263ffffffff60c81b191617600160c81b9184169190910217905560a08301516002830180546001600160a01b0319166001600160a01b0392831617905560c09093015180516003909301805460209283015194841667ffffffffffffffff199091161764010000000094909316939093029190911790915560405167ffffffffffffffff42168152339286169184917f9cc003ce281799e2aae927589858ab8c65f587ce8bcf7e7acd1585622bb85373910160405180910390a460405163ffffffff8316815281907fcff91f21fc31d62857cfae8389280d510a8068acf6396ba419f857c88c3444109060200160405180910390a25b92915050565b805f5f82815260208190526040902060010154600160a01b900460ff166003811115610a6357610a636119a1565b03610a815760405163a2e2361360e01b815260040160405180910390fd5b5f82815260208190526040902060026001820154600160a01b900460ff166003811115610ab057610ab06119a1565b14610ade57600181015460405163e37d4aeb60e01b815261059a91600160a01b900460ff1690600401611bf6565b60018101805460ff60a01b1916600360a01b179081905560408051600160a81b90920463ffffffff1682525184917f6ce28f4431a1a2373a180c3d4150216e102de7b12a7ede0a5de1b9364caba8c5919081900360200190a2505050565b5f81815260026020908152604091829020805483518184028101840190945280845260609392830182828015610b9957602002820191905f5260205f20905b81546001600160a01b03168152600190910190602001808311610b7b575b50505050509050919050565b5f8082815f82815260208190526040902060010154600160a01b900460ff166003811115610bd557610bd56119a1565b03610bf35760405163a2e2361360e01b815260040160405180910390fd5b5f848152602081905260409020546001600160a01b0316610c138161161e565b9350610c27816001600160a01b0316611603565b92505050915091565b6040516bffffffffffffffffffffffff19606084811b8216602084015283901b1660348201525f9060480160405160208183030381529060405280519060200120905092915050565b5f8581526020819052604090206001015485906001600160a01b03163314610cb457604051638c7dc13d60e01b815260040160405180910390fd5b855f5f82815260208190526040902060010154600160a01b900460ff166003811115610ce257610ce26119a1565b03610d005760405163a2e2361360e01b815260040160405180910390fd5b6001600160a01b038616610d275760405163d92e233d60e01b815260040160405180910390fd5b8463ffffffff165f03610d4d576040516319a2a9bd60e01b815260040160405180910390fd5b60ff84161580610d60575060038460ff16115b15610d7e576040516371cfc19160e11b815260040160405180910390fd5b5f8781526020819052604090206003015463ffffffff908116908616811015610dba576040516332ee58bf60e01b815260040160405180910390fd5b5f60015f8a81526020019081526020015f205f896001600160a01b03166001600160a01b031681526020019081526020015f205f015f9054906101000a900460ff1615905060405180608001604052806001151581526020018863ffffffff1681526020018760ff1681526020018681525060015f8b81526020019081526020015f205f8a6001600160a01b03166001600160a01b031681526020019081526020015f205f820151815f015f6101000a81548160ff0219169083151502179055506020820151815f0160016101000a81548163ffffffff021916908363ffffffff1602179055506040820151815f0160056101000a81548160ff021916908360ff160217905550606082015181600101559050508015610f0b575f8981526002602090815260408220805460018101825590835291200180546001600160a01b0319166001600160a01b038a161790555b6040805160ff88168152602081018790526001600160a01b038a16918b917fafb60f879df17e4649d78aeefd04b782b2b18962c479f198ef77bc4268125757910160405180910390a3505050505050505050565b5f8281526020819052604090206001015482906001600160a01b03163314610f9a57604051638c7dc13d60e01b815260040160405180910390fd5b825f5f82815260208190526040902060010154600160a01b900460ff166003811115610fc857610fc86119a1565b03610fe65760405163a2e2361360e01b815260040160405180910390fd5b8263ffffffff165f0361100c5760405163831761d760e01b815260040160405180910390fd5b5f848152602081815260409182902060038101805463ffffffff191663ffffffff881690811790915592519283529186917fcff91f21fc31d62857cfae8389280d510a8068acf6396ba419f857c88c344410910160405180910390a2600180820154600160a01b900460ff166003811115611089576110896119a1565b1480156110aa5750600181015463ffffffff808616600160c81b9092041610155b156110b9576110b9855f611658565b5050505050565b5f8281526020819052604090206001015482906001600160a01b031633146110fb57604051638c7dc13d60e01b815260040160405180910390fd5b825f5f82815260208190526040902060010154600160a01b900460ff166003811115611129576111296119a1565b036111475760405163a2e2361360e01b815260040160405180910390fd5b5f8481526001602090815260408083206001600160a01b038716845290915290205460ff1661118957604051630ce1506f60e41b815260040160405180910390fd5b5f8481526001602090815260408083206001600160a01b03871684528252808320805460ff1916905586835260029091528120805490915b818110156112af57856001600160a01b03168382815481106111e5576111e5611c3b565b5f918252602090912001546001600160a01b0316036112a7578261120a600184611c63565b8154811061121a5761121a611c3b565b905f5260205f20015f9054906101000a90046001600160a01b031683828154811061124757611247611c3b565b905f5260205f20015f6101000a8154816001600160a01b0302191690836001600160a01b031602179055508280548061128257611282611c76565b5f8281526020902081015f1990810180546001600160a01b03191690550190556112af565b6001016111c1565b506040516001600160a01b0386169087907f2bfc672162a1d448dc0c9419afd5da8766cab411d41deae3359df0bc156bdf88905f90a3505050505050565b6112f56115e8565b825f5f82815260208190526040902060010154600160a01b900460ff166003811115611323576113236119a1565b036113415760405163a2e2361360e01b815260040160405180910390fd5b5f8481526020818152604080832060018352818420338552909252909120805460ff1661138157604051637113905760e11b815260040160405180910390fd5b5f856001811115611394576113946119a1565b1480156113ac57508054650100000000009004600116155b156113ca576040516371cfc19160e11b815260040160405180910390fd5b60018560018111156113de576113de6119a1565b1480156113f657508054650100000000009004600216155b15611414576040516371cfc19160e11b815260040160405180910390fd5b600180830154600160a01b900460ff166003811115611435576114356119a1565b1461146357600182015460405163e37d4aeb60e01b815261059a91600160a01b900460ff1690600401611bf6565b5f856001811115611476576114766119a1565b036114e8578361149957604051632dd79b6d60e11b815260040160405180910390fd5b805460018301805463ffffffff6101009093048316926019916114c5918591600160c81b900416611c8a565b92506101000a81548163ffffffff021916908363ffffffff16021790555061153f565b60018201805463ffffffff60c81b191690819055604051600160a81b90910463ffffffff16815286907faa2476aca52fd48a0166aa898267e4011cfe7011b415a80a9178abf035063a359060200160405180910390a25b600182015460408051868152600160a81b90920463ffffffff16602083015267ffffffffffffffff421690820152339087907f308f99a872a1ab405ff0effd2b753774f1034bdee1ea7d507c53080558f546209060600160405180910390a36003820154600183015463ffffffff918216600160c81b909104909116106115ca576115ca8685611658565b5050506115e360015f516020611e3c5f395f51905f5255565b505050565b6115f0611751565b60025f516020611e3c5f395f51905f5255565b5f610a2f61161083611782565b805160209091012060081c90565b5f610a2f61162b836117b3565b60405160200161163b9190611cbd565b604051602081830303815290604052805160209091012060081c90565b5f828152602081815260409182902060018101805460ff60a01b1916600160a11b17908190558351600160a81b90910463ffffffff16815291820184905267ffffffffffffffff421682840152915184917f95eb3307bc739f0b256ab1f6c77093591690e03d9d34f1efe0651dc011f68713916060918190039190910190a260028101546001600160a01b0316156115e3576002810154604051635525ac6f60e01b815260048101859052602481018490526001600160a01b0390911690635525ac6f906044015f604051808303815f87803b158015611736575f5ffd5b505af1925050508015611747575060015b156115e357505050565b5f516020611e3c5f395f51905f525460020361178057604051633ee5aeb560e01b815260040160405180910390fd5b565b606061178d826117b3565b60405160200161179d9190611ccf565b6040516020818303038152906040529050919050565b60408051602a80825260608281019093525f9190602082018180368337019050509050600360fc1b815f815181106117ed576117ed611c3b565b60200101906001600160f81b03191690815f1a905350600f60fb1b8160018151811061181b5761181b611c3b565b60200101906001600160f81b03191690815f1a9053505f5b6014811015611912575f611848826013611c63565b611853906008611ceb565b61185e906002611de5565b611871906001600160a01b038716611df0565b905061188360048260ff16901c611919565b8361188f846002611ceb565b61189a906002611e0f565b815181106118aa576118aa611c3b565b60200101906001600160f81b03191690815f1a9053506118cc81600f16611919565b836118d8846002611ceb565b6118e3906003611e0f565b815181106118f3576118f3611c3b565b60200101906001600160f81b03191690815f1a90535050600101611833565b5092915050565b5f600a8260ff16101561193a57611931826030611e22565b60f81b92915050565b611931826057611e22565b80356001600160a01b038116811461195b575f5ffd5b919050565b5f5f60408385031215611971575f5ffd5b8235915061198160208401611945565b90509250929050565b5f6020828403121561199a575f5ffd5b5035919050565b634e487b7160e01b5f52602160045260245ffd5b600481106119d157634e487b7160e01b5f52602160045260245ffd5b9052565b6001600160a01b0388811682528716602082015261010081016119fb60408301886119b5565b63ffffffff958616606083015293851660808201526001600160a01b039290921660a08301528051841660c08301526020015190921660e0909201919091529392505050565b5f5f5f5f5f5f6101a08789031215611a57575f5ffd5b86359550602087013594506040870135935060608701359250608087013591506101a08701881015611a87575f5ffd5b60a0870190509295509295509295565b803563ffffffff8116811461195b575f5ffd5b5f5f60408385031215611abb575f5ffd5b611ac483611945565b915061198160208401611a97565b602080825282518282018190525f918401906040840190835b81811015611b125783516001600160a01b0316835260209384019390920191600101611aeb565b509095945050505050565b5f5f60408385031215611b2e575f5ffd5b611b3783611945565b915061198160208401611945565b5f5f5f5f5f60a08688031215611b59575f5ffd5b85359450611b6960208701611945565b9350611b7760408701611a97565b9250606086013560ff81168114611b8c575f5ffd5b949793965091946080013592915050565b5f5f60408385031215611bae575f5ffd5b8235915061198160208401611a97565b5f5f5f60608486031215611bd0575f5ffd5b83359250602084013560028110611be5575f5ffd5b929592945050506040919091013590565b60208101610a2f82846119b5565b5f6101a0820190508782528660208301528560408301528460608301528360808301526101008360a0840137979650505050505050565b634e487b7160e01b5f52603260045260245ffd5b634e487b7160e01b5f52601160045260245ffd5b81810381811115610a2f57610a2f611c4f565b634e487b7160e01b5f52603160045260245ffd5b63ffffffff8181168382160190811115610a2f57610a2f611c4f565b5f81518060208401855e5f93019283525090919050565b5f611cc88284611ca6565b9392505050565b67636865636b696e2d60c01b81525f611cc86008830184611ca6565b8082028115828204841417610a2f57610a2f611c4f565b6001815b6001841115611d3d57808504811115611d2157611d21611c4f565b6001841615611d2f57908102905b60019390931c928002611d06565b935093915050565b5f82611d5357506001610a2f565b81611d5f57505f610a2f565b8160018114611d755760028114611d7f57611d9b565b6001915050610a2f565b60ff841115611d9057611d90611c4f565b50506001821b610a2f565b5060208310610133831016604e8410600b8410161715611dbe575081810a610a2f565b611dca5f198484611d02565b805f1904821115611ddd57611ddd611c4f565b029392505050565b5f611cc88383611d45565b5f82611e0a57634e487b7160e01b5f52601260045260245ffd5b500490565b80820180821115610a2f57610a2f611c4f565b60ff8181168382160190811115610a2f57610a2f611c4f56fe9b779b17422d0df92223018b32b4d1fa46e071723d6817e2486d003becc55f00a2646970667358221220c96887b2ec514cc82aba49d84951d450beca6f0d02698bca0dea4d19ef0511d664736f6c634300081e0033",
  "linkReferences": {},
  "deployedLinkReferences": {},
  "immutableReferences": {
    "272": [
      {
        "length": 32,
        "start": 677
      },
      {
        "length": 32,
        "start": 1615
      }
    ]
  },
  "inputSourceName": "project/contracts/PulseOracleV2.sol",
  "devdoc": {
    "errors": {
      "ReentrancyGuardReentrantCall()": [
        {
          "details": "Unauthorized reentrant call."
        }
      ]
    },
    "kind": "dev",
    "methods": {},
    "title": "PulseOracleV2 - Secured accumulator for hackathon demo",
    "version": 1
  },
  "evm": {
    "gasEstimates": {
      "creation": {
        "codeDepositCost": "1565000",
        "executionCost": "infinite",
        "totalCost": "infinite"
      },
      "external": {
        "CAP_NEGATIVE()": "215",
        "CAP_POSITIVE()": "216",
        "WORLD_ID_GROUP_ID()": "240",
        "adapters(bytes32,address)": "4915",
        "authorizeAdapter(bytes32,address,uint32,uint8,bytes32)": "infinite",
        "checkin(bytes32,uint256,uint256,uint256,uint256,uint256[8])": "infinite",
        "computeProfileId(address,address)": "infinite",
        "createProfile(address,uint32)": "infinite",
        "finalize(bytes32)": "30479",
        "getAdapters(bytes32)": "infinite",
        "getCheckinWorldIdParams(bytes32)": "infinite",
        "nullifierUsed(uint256)": "2558",
        "profiles(bytes32)": "9417",
        "reportSignal(bytes32,uint8,bytes32)": "infinite",
        "revokeAdapter(bytes32,address)": "infinite",
        "setConfig(bytes32,uint32)": "infinite",
        "setNotificationTarget(bytes32,address)": "30647",
        "worldId()": "infinite"
      },
      "internal": {
        "_reachThreshold(bytes32,bytes32)": "infinite"
      }
    }
  },
  "storageLayout": {
    "storage": [
      {
        "astId": 308,
        "contract": "project/contracts/PulseOracleV2.sol:PulseOracleV2",
        "label": "profiles",
        "offset": 0,
        "slot": "0",
        "type": "t_mapping(t_bytes32,t_struct(Profile)294_storage)"
      },
      {
        "astId": 315,
        "contract": "project/contracts/PulseOracleV2.sol:PulseOracleV2",
        "label": "adapters",
        "offset": 0,
        "slot": "1",
        "type": "t_mapping(t_bytes32,t_mapping(t_address,t_struct(AdapterAuth)303_storage))"
      },
      {
        "astId": 320,
        "contract": "project/contracts/PulseOracleV2.sol:PulseOracleV2",
        "label": "_adapterList",
        "offset": 0,
        "slot": "2",
        "type": "t_mapping(t_bytes32,t_array(t_address)dyn_storage)"
      },
      {
        "astId": 324,
        "contract": "project/contracts/PulseOracleV2.sol:PulseOracleV2",
        "label": "nullifierUsed",
        "offset": 0,
        "slot": "3",
        "type": "t_mapping(t_uint256,t_bool)"
      }
    ],
    "types": {
      "t_address": {
        "encoding": "inplace",
        "label": "address",
        "numberOfBytes": "20"
      },
      "t_array(t_address)dyn_storage": {
        "base": "t_address",
        "encoding": "dynamic_array",
        "label": "address[]",
        "numberOfBytes": "32"
      },
      "t_bool": {
        "encoding": "inplace",
        "label": "bool",
        "numberOfBytes": "1"
      },
      "t_bytes32": {
        "encoding": "inplace",
        "label": "bytes32",
        "numberOfBytes": "32"
      },
      "t_enum(LifecycleState)257": {
        "encoding": "inplace",
        "label": "enum PulseOracleV2.LifecycleState",
        "numberOfBytes": "1"
      },
      "t_mapping(t_address,t_struct(AdapterAuth)303_storage)": {
        "encoding": "mapping",
        "key": "t_address",
        "label": "mapping(address => struct PulseOracleV2.AdapterAuth)",
        "numberOfBytes": "32",
        "value": "t_struct(AdapterAuth)303_storage"
      },
      "t_mapping(t_bytes32,t_array(t_address)dyn_storage)": {
        "encoding": "mapping",
        "key": "t_bytes32",
        "label": "mapping(bytes32 => address[])",
        "numberOfBytes": "32",
        "value": "t_array(t_address)dyn_storage"
      },
      "t_mapping(t_bytes32,t_mapping(t_address,t_struct(AdapterAuth)303_storage))": {
        "encoding": "mapping",
        "key": "t_bytes32",
        "label": "mapping(bytes32 => mapping(address => struct PulseOracleV2.AdapterAuth))",
        "numberOfBytes": "32",
        "value": "t_mapping(t_address,t_struct(AdapterAuth)303_storage)"
      },
      "t_mapping(t_bytes32,t_struct(Profile)294_storage)": {
        "encoding": "mapping",
        "key": "t_bytes32",
        "label": "mapping(bytes32 => struct PulseOracleV2.Profile)",
        "numberOfBytes": "32",
        "value": "t_struct(Profile)294_storage"
      },
      "t_mapping(t_uint256,t_bool)": {
        "encoding": "mapping",
        "key": "t_uint256",
        "label": "mapping(uint256 => bool)",
        "numberOfBytes": "32",
        "value": "t_bool"
      },
      "t_struct(AdapterAuth)303_storage": {
        "encoding": "inplace",
        "label": "struct PulseOracleV2.AdapterAuth",
        "members": [
          {
            "astId": 296,
            "contract": "project/contracts/PulseOracleV2.sol:PulseOracleV2",
            "label": "authorized",
            "offset": 0,
            "slot": "0",
            "type": "t_bool"
          },
          {
            "astId": 298,
            "contract": "project/contracts/PulseOracleV2.sol:PulseOracleV2",
            "label": "weight",
            "offset": 1,
            "slot": "0",
            "type": "t_uint32"
          },
          {
            "astId": 300,
            "contract": "project/contracts/PulseOracleV2.sol:PulseOracleV2",
            "label": "capabilities",
            "offset": 5,
            "slot": "0",
            "type": "t_uint8"
          },
          {
            "astId": 302,
            "contract": "project/contracts/PulseOracleV2.sol:PulseOracleV2",
            "label": "typeLabel",
            "offset": 0,
            "slot": "1",
            "type": "t_bytes32"
          }
        ],
        "numberOfBytes": "64"
      },
      "t_struct(Config)277_storage": {
        "encoding": "inplace",
        "label": "struct PulseOracleV2.Config",
        "members": [
          {
            "astId": 274,
            "contract": "project/contracts/PulseOracleV2.sol:PulseOracleV2",
            "label": "threshold",
            "offset": 0,
            "slot": "0",
            "type": "t_uint32"
          },
          {
            "astId": 276,
            "contract": "project/contracts/PulseOracleV2.sol:PulseOracleV2",
            "label": "missedAttemptWeight",
            "offset": 4,
            "slot": "0",
            "type": "t_uint32"
          }
        ],
        "numberOfBytes": "32"
      },
      "t_struct(Profile)294_storage": {
        "encoding": "inplace",
        "label": "struct PulseOracleV2.Profile",
        "members": [
          {
            "astId": 279,
            "contract": "project/contracts/PulseOracleV2.sol:PulseOracleV2",
            "label": "owner",
            "offset": 0,
            "slot": "0",
            "type": "t_address"
          },
          {
            "astId": 281,
            "contract": "project/contracts/PulseOracleV2.sol:PulseOracleV2",
            "label": "consumer",
            "offset": 0,
            "slot": "1",
            "type": "t_address"
          },
          {
            "astId": 284,
            "contract": "project/contracts/PulseOracleV2.sol:PulseOracleV2",
            "label": "state",
            "offset": 20,
            "slot": "1",
            "type": "t_enum(LifecycleState)257"
          },
          {
            "astId": 286,
            "contract": "project/contracts/PulseOracleV2.sol:PulseOracleV2",
            "label": "epoch",
            "offset": 21,
            "slot": "1",
            "type": "t_uint32"
          },
          {
            "astId": 288,
            "contract": "project/contracts/PulseOracleV2.sol:PulseOracleV2",
            "label": "accumulatedWeight",
            "offset": 25,
            "slot": "1",
            "type": "t_uint32"
          },
          {
            "astId": 290,
            "contract": "project/contracts/PulseOracleV2.sol:PulseOracleV2",
            "label": "notificationTarget",
            "offset": 0,
            "slot": "2",
            "type": "t_address"
          },
          {
            "astId": 293,
            "contract": "project/contracts/PulseOracleV2.sol:PulseOracleV2",
            "label": "config",
            "offset": 0,
            "slot": "3",
            "type": "t_struct(Config)277_storage"
          }
        ],
        "numberOfBytes": "128"
      },
      "t_uint256": {
        "encoding": "inplace",
        "label": "uint256",
        "numberOfBytes": "32"
      },
      "t_uint32": {
        "encoding": "inplace",
        "label": "uint32",
        "numberOfBytes": "4"
      },
      "t_uint8": {
        "encoding": "inplace",
        "label": "uint8",
        "numberOfBytes": "1"
      }
    }
  },
  "userdoc": {
    "kind": "user",
    "methods": {
      "checkin(bytes32,uint256,uint256,uint256,uint256,uint256[8])": {
        "notice": "Owner check-in with Orb World ID proof — resets accumulated weight."
      },
      "getCheckinWorldIdParams(bytes32)": {
        "notice": "Frontend helper — must match IDKit action/signal for Orb check-in."
      }
    },
    "notice": "v0.1 core + ReentrancyGuard, World ID Orb check-in, Walrus ref on negative signals.",
    "version": 1
  },
  "argsData": "0x000000000000000000000000469449f251692e0779667583026b5a1e99512157",
  "transaction": {
    "hash": "0x7f8b326e6ddd05670dc145d6816499a34cfbfb97046e74e5f72efcf85f8f45d6",
    "nonce": "0x3f",
    "origin": "0x4d7a23045f7c76dc57e2afd2eb038e2cf743e284"
  }
}